:100000000C9429070C9470070C9470070C946727C4
:100010000C9470070C9470070C9470070C94700784
:100020000C9470070C9470070C94A82F0C947C30DF
:100030000C942C2A0C9470070C9470070C94700785
:100040000C9470070C9470070C9470070C94700754
:100050000C9470070C949F2A0C9470070C947007F2
:100060000C9470070C9470070C9470070C94700734
:100070000C9470070C9470070C9470070C94700724
:100080000C9470070C9470070C9470070C94700714
:100090000C9470070C9470070C9470070C94700704
:1000A0000C9470070C9470070C9470070005010500
:1000B0000205030504050505000601060206030600
:1000C00004060506000701070207030704070507E2
:1000D00000080108020803080408050800090109CE
:1000E00002090309040905090000010002000300D8
:1000F00004000500000101010201030104010501E2
:1001000000020102020203020402050200030103CD
:1001100002030303040305030004010402040304AF
:1001200004040504000000000000000000000000BE
:1001300000000000000000000000000000000000BF
:100140000000000000000000000818FC1E1800005D
:1001500080E0783C2C1C18101010101010183C3641
:100160007EF0808080800000104024362000000057
:1001700000000000000000000000000000F01C046F
:100180000CF800000000000000000000000000006B
:10019000000000000000000000000000000000005F
:1001A000000000000000000000000000000000004F
:1001B000000000000000000000000000000000003F
:1001C0000000000000000000000000000000617F4F
:1001D000E7260C000000071B1018070700000000AE
:1001E000028BCF7F14161A181808080C0C0C0C0C74
:1001F0000C0C080808081810303030988CC7603094
:100200001C030000000000000000000000000000CF
:1002100000000000000000000000000000000000DE
:1002200000000000000000000000000000000000CE
:1002300000000000000000000000000000000000BE
:1002400000000000000000000000081C76180000FC
:1002500001E3361E0C0C0C0C0C8CCC6C2406060333
:10026000030100000000000000000000000080808A
:10027000C0406000000000000000000101877C0019
:10028000000000000000000000000000000000006E
:10029000000000000000000000000000000000005E
:1002A000000000000000000000000000000000004E
:1002B000000000000000000000000000000000003E
:1002C000000000000000000000000000000000002E
:1002D000030C08081008080C0C070E08081808087A
:1002E000080808080808080F0C0C0C0406060F1F65
:1002F0001818080808080C04040606020301000088
:1003000000000000000000000000000000000000ED
:1003100000000000000000000000000000000000DD
:10032000000000004350534C4B000A0A00556E6415
:1003300065660041646A0A004C6F7765720052611D
:1003400069736500426173650A004C41594552006A
:100350000A0A00556E64656600436C6D6B00517748
:1003600072740057494E004D414300004D4F4445C3
:10037000000A0A0029001E001F00200021002200A0
:100380002B0014001A00080015001700E1000400FB
:100390001600070009000A00E3001D001B0006000C
:1003A00019000500E200E000A95D2C002800A8006B
:1003B0002D00270026002500240023002E00130016
:1003C00012000C0018001C00340033000F000E0057
:1003D0000D000B00E500380037003600100011005A
:1003E00031004C00A85D39002A00000035001E00D5
:1003F0001F00200021002200290014001A0009001B
:1004000013000A002B000400150016001700070057
:10041000E1001D001B00060019000500E300E200DA
:10042000E000A85D2800A800350027002600250070
:10043000240023002A0033001C0018000F000D00C8
:10044000340012000C00080011000B00E500380019
:100450003700360010000E00E700E600E400A95D5A
:100460002C00000035003A003B003C003D003E00FF
:1004700035001E001F0020002100220001001E0286
:100480001F0220022102220201002E002D002E0256
:100490002F023002010001000100010001000100F3
:1004A000440043004200410040003F004500270057
:1004B00026002500240023003102270226022502FF
:1004C00024022302010031003302330030002F00E8
:1004D0000100010001000100010001000100010014
:1004E00001000100010001002B00490046006500E9
:1004F000000000004800E200E000E10000003900D8
:1005000047007A007B007C007D00000001000100B4
:1005100001000100010001000100010001000100D3
:10052000010001002A00AF5DAC5D5200AB5D4B00E5
:100530002A004C004F00510050004E000100000006
:10054000AE5D0000AD5D0000010001000100010092
:100550000100010000000000000000000000000099
:10056000005C0000A65DA75D015D000000000000CA
:10057000015D00000000000000000000000000001D
:100580000000000001000100010001000100000066
:10059000000000000000000000000000000000005B
:1005A000000000000000000000000000A900A800FA
:1005B000AA00000000000000AB00AE00AC0000008C
:1005C0000100010001000100010000004445425506
:1005D000473A2064697361626C65642E0A00444581
:1005E0004255473A20656E61626C65642E0A004F81
:1005F0006E6573686F743A206163746976653A203A
:1006000025640A000A0025303258006B6579626F54
:100610006172645F7365745F6C65643A20000A0000
:1006200025303862003A200025303258000A722FF7
:10063000632030313233343536370A005461726703
:10064000657420636F6E6E65637465640D0A005493
:10065000617267657420646973636F6E6E6563743D
:1006600065642C207468726F74746C696E672063A3
:100670006F6E6E656374696F6E20617474656D7002
:1006800074730D0A004661696C656420746F20659F
:100690007865637574652025730A006F6C65645F07
:1006A0006F666620636D64206661696C65640A002C
:1006B00000AE6F6C65645F6F6E20636D6420666171
:1006C000696C65640A0000AF6F6C65645F72656E8B
:1006D00064657239302064617461206661696C659B
:1006E000640A006F6C65645F72656E646572206495
:1006F000617461206661696C65640A006F6C656491
:100700005F72656E646572206F66667365742063E0
:100710006F6D6D616E64206661696C65640A00646A
:100720006973706C61795F7365747570322066618E
:10073000696C65640A0000DA0281FFD9F1DB20A44C
:10074000A62EAF646973706C61795F666C697070B6
:100750006564206661696C65640A0000A0C06F6C06
:1007600065645F696E697420636D64206E6F726D7D
:10077000616C20726F746174696F6E206661696C60
:1007800065640A0000A1C86F6C65645F696E697476
:1007900020636D64207365742031206661696C6527
:1007A000640A0000AED580A81FD300408D1420003D
:1007B00007087F0807003E5B4F5B3E003E6B4F6BB8
:1007C0003E001C3E7C3E1C00183C7E3C18001C5722
:1007D0007D571C001C5E7F5E1C0000183C1800004A
:1007E000FFE7C3E7FF00001824180000FFE7DBE77E
:1007F000FF0030483A060E00262979292600407F5E
:1008000005050700407F05253F005A3CE73C5A009C
:100810007F3E1C1C0800081C1C3E7F0014227F2207
:1008200014005F5F005F5F0006097F017F000066C4
:1008300089956A0060606060600094A2FFA29400E5
:1008400008047E04080010207E20100008082A1CDE
:100850000800081C2A0808001E10101010000C1EAA
:100860000C1E0C0030383E383000060E3E0E0600DE
:1008700000000000000000005F000000000700070B
:100880000000147F147F1400242A7F2A12002313EF
:100890000864620036495620500000080703000033
:1008A000001C224100000041221C00002A1C7F1C69
:1008B0002A0008083E080800008070300000080880
:1008C0000808080000006060000020100804020012
:1008D0003E5149453E0000427F400000724949496F
:1008E00046002141494D33001814127F100027455E
:1008F000454539003C4A4949310041211109070069
:10090000364949493600464949291E00000014006D
:1009100000000040340000000008142241001414BC
:1009200014141400004122140800020159090600A1
:100930003E415D594E007C1211127C007F494949AD
:1009400036003E41414122007F4141413E007F4906
:10095000494941007F09090901003E4141517300A5
:100960007F0808087F0000417F4100002040413F90
:1009700001007F08142241007F40404040007F0278
:100980001C027F007F0408107F003E4141413E0071
:100990007F09090906003E4151215E007F0919299E
:1009A000460026494949320003017F0103003F40C8
:1009B00040403F001F2040201F003F4038403F0084
:1009C0006314081463000304780403006159494D5B
:1009D0004300007F41414100020408102000004113
:1009E00041417F00040201020400404040404000B9
:1009F0000003070800002054547840007F28444436
:100A00003800384444442800384444287F0038548F
:100A10005454180000087E09020018A4A49C780011
:100A20007F080404780000447D4000002040403DE1
:100A300000007F102844000000417F4000007C043B
:100A4000780478007C080404780038444444380072
:100A5000FC182424180018242418FC007C08040422
:100A6000080048545454240004043F4424003C40EB
:100A700040207C001C2040201C003C4030403C00BA
:100A80004428102844004C9090907C004464544CBE
:100A900044000008364100000000770000000041DB
:100AA000360800000201020402003C2623263C0016
:100AB000000000000000404040F0F8F8FF38FFF868
:100AC000F83FF8F8FF38FFF8F8F040404000000029
:100AD00000000080C0C0C0800000C0C080000000D6
:100AE00080C0C000C0C0000080C0C0000000000086
:100AF000C0C0C0C0C000C0C00000000000000000B6
:100B000000000000000000000000000000000000E5
:100B100000000000000000000000000000000000D5
:100B2000000000000000000000000000000000C005
:100B3000F0F8FC3E1E06010000007F4141417F00AD
:100B40007F4141417F000080C0E07E5B4F5BFEC083
:100B50000000C000DCD7DEDEDED7DC00C000000015
:100B60000000000000000000000000000000000085
:100B7000000000000000494949FFFFFFFFE0DFBF20
:100B8000BF00BFBFDFE0FFFFFFFF49494900000092
:100B900000001F3F6060E0BF1F007F7F071E381E00
:100BA000077F7F007F7F0E1F3B7160000000000009
:100BB0007F7F0C0C0C007E7E007F7E0303007F7E17
:100BC00003037E7E03037F7E000F3E703C063C7075
:100BD0003E0F00327B49493F7E007F7E0303001EAB
:100BE0003F69696F2600000000000000000000035C
:100BF0000F1F3F3C7870600000007F4141417F0043
:100C00007F4141417F00307B7F7830202030787FEA
:100C10003B0003000F7F0F0F0F7F0F00030000004A
:100C200000000000000000000000000000000000C4
:100C3000000000000000010101070F0F7F0F7F0F70
:100C40000F7E0F0F7F0F7F0F0F07010101000000C4
:100C50000000000000000001010000000000000092
:100C60000000000000000000000000000000000084
:100C70000000000000000000000000000000000074
:100C80000000000000000000000000000000000064
:100C90000000000000000000000000000000000054
:100CA0000000000000000000000000000000000044
:100CB0000000000000000000000000000000000034
:100CC0000000000000000000000000000000000024
:100CD0000000000000000000000000000000000014
:100CE0000000000000000000000000000000000004
:100CF0000A002530325820006B6579626F6172649A
:100D00005F7265706F72743A20005B735D005B57B1
:100D10005D005B535D005B525D005B445D005B43C7
:100D20005D000C0353006F0066006C00650000005E
:100D30001A034A006F0073006500660041006400FA
:100D400061006D00630069006B000000040309048A
:100D500009025B00030100A0FA090400000103017D
:100D6000010009211101000122400007058103084B
:100D7000000A09040100010300000009211101001B
:100D8000012232000705820320000A090402000242
:100D90000300000009211101000122220007058340
:100DA00003200001070503032000011201000200D7
:100DB00000000832FC87020100010200010631FF39
:100DC0000974A1010975150026FF00952075088199
:100DD000020976150026FF00952075089102C005CE
:100DE000010980A101850319012AB700150126B761
:100DF00000950175108100C0050C0901A101850451
:100E000019012AA002150126A00295017510810082
:100E1000C005010906A101050719E029E71500250C
:100E20000195087501810295017508810105071971
:100E30000029FF150026FF009506750881000508AA
:100E40001901290595057501910295017503910117
:100E5000C00011241FBECFEFDAE0DEBFCDBF04B665
:100E600003FE27C08091540590915505A091560529
:100E7000B09157058730904BA740B04BD1F41092FA
:100E8000540510925505109256051092570514BE40
:100E900084B7877F84BF0FB6F894A89580916000CF
:100EA000886180936000109260000FBEE0E0F8E37C
:100EB000099512E0A0E0B1E0EEE0F6E602C0059090
:100EC0000D92A830B107D9F725E0A8E0B2E001C043
:100ED0001D92A435B207E1F70E94FE1E0C94DA328F
:100EE0000C940000FF93EF93E0910802F091090247
:100EF000309709F00995EF91FF910895FC018591D4
:100F0000803011F0EFDFFBCF0895FF27E0E230E201
:100F100047FF0CC0419597FF09C0EDE260957095C1
:100F200080959095611D711D811D911D27FF02C047
:100F3000219530E350E2AA27660F771F881F991F7B
:100F4000AA1FA41710F0A41B63955A95A9F7AA30FD
:100F500008F0A95FA05DAF93F39561157105810558
:100F6000910541F7ED3211F4EF93F395F21718F470
:100F70003F93F395FBCF8F91B5DFFA95E1F7089595
:100F8000E991F9918591803021F0853219F0AADF3D
:100F9000F9CF089520E0E89455915532C1F35033CC
:100FA00011F4689455915A3348F4505390F3220F3A
:100FB000022E220F220F200D250FF4CF0EF42195C3
:100FC00089919991533619F3533729F1533559F1D2
:100FD000BC0188279927E8945C3621F4899199917E
:100FE00068945591543639F446EF7EF077FF0DC082
:100FF0008FEF9FEF0AC055374AE039F0583540E18E
:1010000021F0523642E009F00895FF93EF937DDF1F
:10101000EF91FF91B7CFFF93EF93FC018191803067
:10102000B9F360DFFBCFFF93EF9368DFF1CFDF937E
:10103000CF93CDB7DEB72596A3DFCF91DF9108958B
:10104000CF93C82F0E94301C8111C3E08C2FCF9109
:1010500008950E94301C882309F47AC060E081E77B
:1010600093E00E94A42060E08CE693E00E94B6200A
:1010700060E08BE693E00E94B6208091230360E05D
:1010800080FF18C087E693E00E94B620609143027B
:101090007091440280914502909146020E94400B5B
:1010A000882359F0813079F160E083E593E00E9474
:1010B000A42008C083E693E0E7CF60E08EE593E0EC
:1010C0000E94B62060E080E593E00E94A42060E0EA
:1010D0008AE493E00E94B62060913F027091400242
:1010E00080914102909142020E94400B823041F176
:1010F00070F0833009F1843039F160E08DE293E0E3
:101100000E94B62009C060E089E593E0D9CF60E095
:1011100084E493E00E94A42060E08AE293E00E94CD
:10112000A4200E94FE2881FB662760F984E293E0F8
:101130000E94B62080E0089560E08EE393E0EACF5D
:1011400060E088E393E0E6CF60E083E393E0E2CF02
:1011500060E072E084E291E00E94BB20EBCFCF938D
:10116000FB01883A2DE5920709F46AC020F58C3717
:10117000910509F4DDC050F48A37910509F402C1E4
:101180008B37910509F4EEC0C1E04FC0863A2DE5DA
:10119000920709F446C008F04BC08D379105A1F7BE
:1011A000C28181E0CC2309F4D7C00E947B190E9440
:1011B000D70C89E1C6C08C3A2DE5920709F475C0B9
:1011C000D0F4C2818A3A2DE5920709F44FC008F4A1
:1011D00043C0809123038170CC2309F459C0882334
:1011E00009F44DC084E00E947B190E94D70C80E571
:1011F0000E944A0C1AC08E3A2DE5920709F484C069
:1012000008F474C08F3A9D4509F0BECFC28181E0D9
:10121000CC2309F487C00E947B190E94D70C8AE274
:10122000E7CFC28180E0C11107C08C2FCF91089514
:10123000C281CC23D1F381E00E94330AC0E0F5CF14
:10124000C28182E0CC2351F00E949C1044E063E014
:1012500082E00E94A10AF2CF83E0F4CF0E94BD1089
:1012600044E063E082E00E94A10ADFCF84E0CC2367
:1012700019F00E949C10E2CF0E94BD10D6CF81E0F1
:101280000E947B190E94D70C80E50E944A0C7CCFFB
:10129000882349F084E00E947B190E94DE0C80E5DF
:1012A0000E94900C71CF81E0F6CFC2818091230320
:1012B0008170CC2381F0882339F084E00E947B196F
:1012C0000E94D70C8FE494CF81E00E947B190E948A
:1012D000D70C8FE4DACF882339F084E00E947B19A1
:1012E0000E94DE0C8FE4DCCF81E0F8CFC2818091D8
:1012F00023038170CC2321F08111C1CF8AE478CF00
:101300008111D1CF8AE4CCCFC28180912303817037
:10131000CC2321F08111D8CF8DE46ACF8111E4CFA5
:101320008DE4BECF0E947B190E94DE0C8AE2B8CF0A
:10133000C28181E0CC2341F00E947B190E94D70C2E
:1013400086E00E944A0C7ACF0E947B190E94DE0C34
:1013500086E00E94900C69CF0E947B190E94DE0CEF
:1013600089E1F7CFC28181E0CC2331F00E947B1963
:101370000E94D70C8BE1E5CF0E947B190E94DE0C06
:101380008BE1E7CFC28181E0CC2331F00E947B1951
:101390000E94D70C8DE1D5CF0E947B190E94DE0CF4
:1013A0008DE1D7CF811108C089EA611101C08AEAB5
:1013B0000E94CF0C81E008958130E1F78EE4611145
:1013C000F7CF8BE4F5CF81E008950C94AF08089532
:1013D0000C94E7091F93CF93DF9300D000D00F92B6
:1013E000CDB7DEB749835A836B833091140289816C
:1013F0009A8131111DC06623B9F02223A9F00E9401
:101400008F11182F682F89819A810E943811698164
:101410007A81812F0F900F900F900F900F90DF9196
:10142000CF911F910C94CC180E946611182FEFCF0A
:101430000E948F1169817A81EDCFFC01262F4081B6
:1014400051816281738184810C94EA0981E008955D
:10145000CF93DF93EC0160E00E941D0ABE01DF9193
:10146000CF910C94E809CF92DF92EF92FF92C12CBA
:10147000D12C7601C39404C0CC0CDD1CEE1CFF1CE7
:101480008A95D2F78C2D0E941216C701B601FF90E3
:10149000EF90DF90CF900C943A108F929F92AF9282
:1014A000BF92CF92DF92EF92FF920F931F936B0147
:1014B0007C0181E090E0A0E0B0E04C015D0104C05F
:1014C000880C991CAA1CBB1C4A95D2F7B501A40133
:1014D0004C015D0104C0880C991CAA1CBB1C2A95F8
:1014E000D2F7482959296A297B2904C0880F991FF6
:1014F000AA1FBB1F0A95D2F78A019B010C211D214F
:101500002E213F21041715072607370789F48C2958
:101510009D29AE29BF29BC01CD011F910F91FF90DC
:10152000EF90DF90CF90BF90AF909F908F900895F5
:1015300080959095A095B0958C219D21AE21BF21DD
:10154000EACF0F93382F262F60913F02709140020F
:101550008091410290914202042F432F0E944D0A34
:101560000F910C9476100E94001A0E94AC0B0C9400
:10157000251A0C94281A80E00E94AD0B0C943B2293
:10158000089508950E94E10F0E94C10A2FEF84E39D
:101590009CE0215080409040E1F700C000000C9496
:1015A000C32A0F931F93CF93DF938C0161E00E94B6
:1015B0001D0AEC01B8010E94E5098823C1F1B801B8
:1015C000CE010E946625882391F1B801CE010E94C8
:1015D0009622882361F1B801CE010E94D02488238D
:1015E00031F1F8018281882361F0CF3DFCE5DF070E
:1015F000B1F170F4C115ECE5DE07B9F0C130DC459E
:10160000E1F0C801DF91CF911F910F910C94E30994
:10161000CC358DE5D80749F1CD35DC0719F1CB354F
:10162000DD4579F70E94F915ECCF0E94C20A80E0EF
:10163000DF91CF911F910F9108959091A402892F6E
:101640008E7F90FF81608093A40280FF05C08EEDA5
:1016500095E00E947E07EBCF8CEC95E0FACF0E94DC
:10166000A916E5CF0E94F015CCCF0E94FC15C9CF7A
:101670000C94C00A0E94EB280E94AD0B0C94380B0E
:10168000CF92DF92EF92FF926C01EE24FF2420E0D4
:10169000C114D104E104F10419F0C701B60120E13D
:1016A000C72ED82EE92EFF24C114D104E104F10481
:1016B00019F0285FC701B6016B017C0154E0F69474
:1016C000E794D794C7945A95D1F7C114D104E10493
:1016D000F10419F02C5FC701B6016B017C0142E0F7
:1016E000F694E794D794C7944A95D1F7C114D104DE
:1016F000E104F10419F02E5FC701B60196958795B4
:1017000077956795672B682B692B09F02F5F822FE0
:10171000FF90EF90DF90CF900895829590E09C012C
:10172000220F331F220F331F2C7C9595879595959B
:1017300087958373282B30E0C901880F991F8A7A17
:10174000359527952575822B089508950C94A50B42
:1017500081E008950C94A80B0895CF93C82F0E94A0
:10176000A60B8C2FCF910C94AA0BCF93DF93EC0197
:101770002881898141E050E0022E01C0440F0A9483
:10178000EAF7A82FB0E0A65FBD4F9C913A813323C2
:10179000D9F0309116023323D1F030E066E0869F15
:1017A000200D311D1124220F331FF901E355FF4F86
:1017B000E491E983F901E455FF4FE491E883492B73
:1017C0004C93DF91CF910895392F3423E4CF409586
:1017D0004923F6CFCF93DF93CDB7DEB72B970FB664
:1017E000F894DEBF0FBECDBF4F83588769877A87D5
:1017F0008B8761110E9438158A859B85892B29F07A
:101800008F81988589238F3F61F51E821D8285E037
:10181000FE013796DE01119601900D928A95E1F74F
:101820008C819D81892B89F449815A816B817C81CE
:101830008D819E810E9433142B960FB6F894DEBFE3
:101840000FBECDBFDF91CF91089589819A81892301
:101850008F3F51F3CE0101960E94260A8111E4CFF9
:10186000EBCFCE0107960E94B50BCFCFFC01808154
:1018700091810E94D11192959F70963051F4863FCC
:1018800041F08091160291E089278093160290938F
:1018900015020895CF93C82F882309F43FC08CEF19
:1018A0008C0F813AA0F46C2F80910201909103017A
:1018B0000E948B29882329F08C2F0E94D4140E9427
:1018C0005B158C2F0E94CD14CF910C945B1580E298
:1018D0008C0F883048F4C77081E001C0880FCA952A
:1018E000EAF70E941B15F0CFEBE5EC0FE33040F474
:1018F000F0E0E558FE4F808190E0CF910C944D29A7
:10190000C85AC73158F4EC2FF0E0EE0FFF1FE35B2D
:10191000FE4F80819181CF910C946329CF910895DE
:10192000882329F19CEF980F913A20F40E94D41457
:101930000C945B1590E2980F983050F4877091E00A
:1019400001C0990F8A95EAF7892F0E942115F0CFDF
:101950009BE5980F933020F490E080E00C944D29A3
:10196000885A873120F490E080E00C946329089530
:101970001F93CF93DF93182FEB010E944A0C2097FF
:1019800031F4812FDF91CF911F910C94900C8FE94E
:101990009FE00197F1F700C000002197F0CF6AE0C7
:1019A00070E0893311F460E570E00C94B80C882382
:1019B00021F00E941B150C945B150895882321F0DB
:1019C0000E9421150C945B1508954F925F926F92BF
:1019D0007F92BF92CF92DF92EF92FF920F931F936D
:1019E000CF93DF936C01C62F172FFC01D2810581A5
:1019F00002950F700E941115E82E8823D1F0DD2387
:101A000029F1812F807F803441F090E29C0F983043
:101A1000E8F0803611F4C63FC9F08091230382FDBF
:101A200015C082E00E94AC150E94111591E0E82ECD
:101A3000E926B12EB2949FE0B922FBE0FB15C0F17C
:101A4000EB2DF0E0E452FD4C0C947332E12CF1CF1D
:101A5000012F0F70812F807F11F00295007FDD2311
:101A600099F0002359F080E28C0F883010F0C111FA
:101A700007C0802F0E941B150E945B158C2F76C01B
:101A8000802F0E942B15F8CF8C2F0E94900C0023E2
:101A900079F080E28C0F883010F0C11104C0802FE3
:101AA0000E94211503C0802F0E9431150E945B15F2
:101AB0002B2D2850330B2430310520F40E94EB28C5
:101AC0000E94AD0BDD2339F0107F103611F4C63FB4
:101AD00011F00E940415EE2009F410C20E94E714D0
:101AE00080FD0CC2F60112820E94E1140E949C103B
:101AF000C6010E94A30F0E94E114DF91CF911F91B4
:101B00000F91FF90EF90DF90CF90BF907F906F90FC
:101B10005F904F900C94BD10212F2F70F22E812FCB
:101B2000807F803219F0F29480EFF822CC2381F08C
:101B3000C13009F444C0DD2309F44CC0002309F48A
:101B400043C0F601858180FF99CF8F7085833CC0AB
:101B50008091230382FF15C0DD2359F0FF2029F077
:101B60008F2D0E941B150E945B1580E00E944A0C7D
:101B70009FCF80E00E94900CFF2009F499CF8F2D19
:101B80008FCFDD2381F0011106C00E943E158F2901
:101B90000E94D70C8DCF0130C1F70E943E158F29CE
:101BA0000E94441585CF011106C00E9451158F2D4A
:101BB0000E94DE0C7DCF013009F47ACFF6CFDD2311
:101BC00029F0063008F074CF8F2DE2CF053008F0F1
:101BD0006FCFEDCF002359F3C93309F026C1FFEFD2
:101BE00027EE33E0F15020403040E1F700C0000024
:101BF0008C2F0E94900C5CCF812F869586958370E8
:101C000069F0813009F054CF8C2F912F9370D1114E
:101C100002C090E080E00E9463294ACF8C2F912F70
:101C20009370D11102C090E080E00E944D2940CF16
:101C3000812F837009F043C0D1113ACF2C2F229508
:101C400026952770220F220F6C2F6F70462E512C75
:101C5000712C612C022E04C0440C551C661C771C90
:101C60000A94D2F760E070E0CB01C4FF0FC06FE0D0
:101C700070E080E090E004C0660F771F881F991F16
:101C80002A95D2F76095709580959095212F26958D
:101C9000269523706429752986299729223049F0D1
:101CA00058F4213019F00E944E1002CF0E943C10CF
:101CB000FFCE0E946010FCCE0E943A10F9CE8695AD
:101CC000DD2311F0812F8170882309F4F1CE2C2FB0
:101CD000229526952770220F220F6C2F6F70462EAB
:101CE000512C712C612C022E04C0440C551C661C16
:101CF000771C0A94D2F760E070E0CB01C4FF0FC0FC
:101D00006FE070E080E090E004C0660F771F881FEE
:101D1000991F2A95D2F76095709580959095212FFF
:101D200026952695237064297529862997292230BE
:101D300049F058F4213019F00E941311B9CE0E94D5
:101D40000111B6CE0E942511B3CE0E947610B0CEFE
:101D5000012F0F70DD2329F0802F0E949C108C2F03
:101D600017CF8C2F0E94DE0C802F0E94BD10A0CEBA
:101D7000C23F41F160F4C03FB9F0C13F81F0DD23C3
:101D800009F447C001117ACE812F8F711FC0C33F64
:101D900001F1C43FA1F78091230382FF24C0812F6A
:101DA0008F71DD2311F312C0DD2341F0053008F0FF
:101DB0007FCE812F8F710E94E0107ACE063008F01E
:101DC00077CEF7CF812F8F71D111CFCF0E949C108A
:101DD0006FCEDD2329F0812F8F710E94871068CE8E
:101DE0000E94821065CEDD2351F0012F0F71802FEC
:101DF0000E949C1063E0802F0E94911559CE81E0D3
:101E00000E94AC15023008F453CE82E00E94AC155B
:101E10004FCE002379F0C93341F49FEFE7EEF3E0B2
:101E20009150E040F040E1F7E1CE8FE39CE901976B
:101E3000F1F7DCCE812F8F7198CFE0E1EC0FE73026
:101E400090F5F0E0E851FD4C0C947332DD2309F479
:101E50002FCE8091160291E089278093160228CE1A
:101E6000D093160225CE81E08D27F7CFD11120CE59
:101E700081E0F3CFD1111CCE1092160219CEDD23D2
:101E800019F00E94EB1414CE0E94F71411CEDD233A
:101E900039F0809115028823E1F21092150208CEE4
:101EA0000530B8F205CE809115020023D9F08823C1
:101EB00041F08091160291E08927809316021092DA
:101EC0001502D111DBCDEFE3FCE93197F1F700C04A
:101ED00000008C2F0E94900C86E0F60111928A95EA
:101EE000E9F7E6CD882309F4E3CDD111E1CD809166
:101EF000160291E0892780931602CFCFDF91CF9110
:101F00001F910F91FF90EF90DF90CF90BF907F9047
:101F10006F905F904F9008950F931F93CF93DF932F
:101F2000EC01688179818A810E94DB118C010E9419
:101F300037110E943910B801CE01DF91CF911F9166
:101F40000F910C94E50CCF93DF93EC018B819C8176
:101F5000892B29F08881998189238F3F59F4DF915A
:101F6000CF910895CE010E948C0FCE01DF91CF91C9
:101F70000C94280ACE010E94D10A8111F3CF0E944D
:101F80001115882361F38A81882349F38091230303
:101F900082FDE5CF82E0DF91CF910C94AC1590E00B
:101FA00080E00E944D2990E080E00E9463290E9419
:101FB00038150E943B150C945B150E94DB140C94A1
:101FC000CF0F0E9428150C94DD0FE92FE295EF70DA
:101FD000E250EE3070F4F0E0E151FD4C0C947332BD
:101FE000803F19F020F4883E20F481E00895843F7A
:101FF000E1F380E00895883EC0F3813FD1F7F5CF4B
:1020000093FB882780F90895FC01808191810E94CB
:10201000D1110C94E50FCF93DF9300D000D00F9235
:10202000CDB7DEB70F900F900F900F900F90DF910C
:10203000CF910895CF93DF9300D000D000D0CDB7DB
:10204000DEB726960FB6F894DEBF0FBECDBFDF9188
:10205000CF91089508950C942A100E942B1060933C
:1020600043027093440280934502909346020C947D
:10207000CF0F08950C942D100F931F9300914302DE
:10208000109144022091450230914602602B712B41
:10209000822B932B1F910F910C942D100F931F9354
:1020A0000091430210914402209145023091460272
:1020B00060237123822393231F910F910C942D1081
:1020C0000F931F9300914302109144022091450207
:1020D0003091460260277127822793271F910F9125
:1020E0000C942D100C942A100C9472100E947410F1
:1020F00060933F02709340028093410290934202AA
:102100000C94CF0F60E070E0CB010C9476100F932D
:102110001F9341E050E060E070E08A019B0104C041
:10212000000F111F221F331F8A95D2F7C901B80172
:102130001F910F910C9476100F931F9341E050E084
:1021400060E070E004C0440F551F661F771F8A953A
:10215000D2F780913F0290914002A0914102B0914C
:1021600042028A019B01082B192B2A2B3B2BC90108
:10217000B8011F910F910C9476100F931F9341E0BB
:1021800050E060E070E004C0440F551F661F771FE9
:102190008A95D2F7CB01BA0160957095809590959C
:1021A00000913F0210914002209141023091420281
:1021B00060237123822393231F910F910C94761037
:1021C0000F931F9341E050E060E070E004C0440FC3
:1021D000551F661F771F8A95D2F780913F02909115
:1021E0004002A0914102B09142028A019B0108275E
:1021F00019272A273B27C901B8011F910F910C9479
:1022000076100F931F9300913F021091400220918E
:10221000410230914202602B712B822B932B1F9134
:102220000F910C9476100F931F9300913F02109121
:1022300040022091410230914202602371238223A7
:1022400093231F910F910C9476100F931F9300917D
:102250003F021091400220914102309142026027DA
:102260007127822793271F910F910C947610089560
:10227000E92FEE0FE90FEE0F8E0F982F977041E0C8
:1022800001C0440F9A95EAF786958695869595E064
:10229000899FF0011124E95EFD4F30E020E070E0FD
:1022A0005191DF011197CB01022E02C096958795BF
:1022B0000A94E2F7817081958527842385278C9382
:1022C0002F5F3F4F2530310559F70895E92FEE0F65
:1022D000E90FEE0F8E0F982F97708695869586954D
:1022E00025E0829FF0011124E95EFD4F50E040E0BF
:1022F00080E0219130E0092E02C0369527950A949E
:10230000E2F721703327042E01C0220F0A94EAF766
:10231000822B4F5F5F4F4530510559F70895BF92AB
:10232000CF92DF92EF92FF920F931F93CF93DF93A1
:102330008C01C0903F02D0904002E0904102F090AA
:1023400042028091430290914402A0914502B091D3
:102350004602C82AD92AEA2AFB2ACFE1D0E0BC2EBD
:10236000D701C6010C2E04C0B695A7959795879501
:102370000A94D2F780FD0EC0219788F7B12C8B2DDF
:10238000DF91CF911F910F91FF90EF90DF90CF9051
:10239000BF900895B8018C2F0E94E018019761F357
:1023A000EECFCF93DF93EC010E948F11BE01DF913E
:1023B000CF910C94E0181F93CF93DF93EB01909192
:1023C0001402992331F0CB01DF91CF911F910C942E
:1023D000D111882379F0CB010E948F11182F682F1B
:1023E000CE010E943811BE01812FDF91CF911F9144
:1023F0000C94E018CB010E946611182FF4CF1F93A4
:10240000CF93DF93C091470216E0809148028C136E
:1024100004C0DF91CF911F910895D0E01C9FF0017F
:102420001D9FF00D1124E75BFD4F408151816281BA
:102430007381848195810E941A102196C770E5CF1F
:102440004091790250917A0260917B0270917C02F6
:1024500080917D0290917E020C941A10FF920F934E
:102460001F93CF93DF9380917E02807FD1F4809180
:102470007B028823B1F0809147021091480260915D
:10248000790270917A02A0917C02B0917D02062FB0
:102490000723C0910001D091010196E0F92E181395
:1024A00006C0DF91CF911F910F91FF90089590E0AA
:1024B000109711F00F3F19F401968770F0CFF89E36
:1024C0009001F99E300D1124F901E75BFD4F418128
:1024D0004713F2CF40814613EFCF42814111ECCF39
:1024E000438154814A1B5B0B4C175D0728F7809191
:1024F0007E028F70806180937E02F901E25BFD4F66
:1025000080818F708061808389E792E00E94A30FB1
:10251000DF91CF911F910F91FF900C94FF11AF921B
:10252000BF92CF92DF92EF92FF920F931F93CF93C0
:10253000DF93CDB7DEB761970FB6F894DEBF0FBE5D
:10254000CDBF8C0185E0F801DE011D9601900D9252
:102550008A95E1F7F801E28089E7C82E82E0D82E5B
:1025600060917C0270917D026115710509F45FC173
:102570009091790220917A02892F82238F3F09F46A
:1025800056C140815181A380B480F0907B02F50157
:10259000E61BF70BBF01E0910001F0910101FF2064
:1025A00009F4F6C080917E02382F307F6E177F07C6
:1025B00008F0AFC0311179C0FE2C251323C094134D
:1025C00021C0E1101FC08F70806180937E020E9445
:1025D0002012C6010E94A30F80917E02F80185831C
:1025E0008F2D61960FB6F894DEBF0FBECDBFDF9181
:1025F000CF911F910F91FF90EF90DF90CF90BF9000
:10260000AF900895AB2829F0842F85238F3F09F0E0
:1026100027C180E0F82FF170DF2E80FF3CC0809151
:1026200047022091480236E0821315C04D875E872D
:102630008D859E850E94D111292F22952F702230E1
:10264000F0F0243018F59F70F1F0F8019581907F3B
:10265000D1F4D12C1EC090E0389FF001399FF00DCD
:102660001124E75BFD4F6181651306C0608164132F
:1026700003C062816E110FC001968770D5CF9F7025
:1026800011F0882331F3805E883018F3C8010E946E
:10269000A30FFD2CA5CFEE2009F4A2CF80917E02DE
:1026A000816080937E02F12C9BCF251306C094138A
:1026B00004C0F801EE2009F487C0C8010E9404108C
:1026C000882319F1EE2009F180917E02803270F0AA
:1026D0002091790230917A0238872F831986BB8640
:1026E000AA868C87CE0107960E94A30F86E0F80188
:1026F000A9E7B2E001900D928A95E1F70E942E12AF
:102700000E942012FF24F3946BCFC8010E94A30FF4
:10271000F9CF311113C07A2DB98AA88A6E2D898913
:102720000E940B1089E792E00E94A30F86E0F60159
:1027300011928A95E9F70E942012B5CF25130FC098
:1027400094130DC0E1100BC0F8018583C8010E94ED
:10275000A30F86E0F60111928A95E9F741CFC801EF
:102760000E940410882389F2EE2079F280917E0283
:10277000803208F4BBCF2091790230917A023A83FB
:1027800029831B82BD82AC828E83CE010196ACCFA1
:102790006E177F0708F03EC0FE2CEE2009F4B5CF7F
:1027A00025132AC0941328C080917E0280FD1BC08F
:1027B000982F907FC1F0F8018583903F31F0982FDA
:1027C000907F905F8F70892B8583C8010E94A30F33
:1027D00086E0F801A9E7B2E001900D928A95E1F751
:1027E0000E942012FDCE86E0F801A9E7B2E0019038
:1027F0000D928A95E1F7F4CEC8010E940410811170
:1028000075CF80917E02816080937E02C8010E9414
:10281000A30FE6CE7A2DB98AA88A6E2D89890E94E7
:102820000B1086E0F60111928A95E9F7D9CFEE20D8
:1028300009F46BCFC8010E940410F82E882309F414
:1028400064CF86E0F801A9E7B2E001900D928A9585
:10285000E1F789E792E00E94360C0E942E12C0CF69
:1028600081E08E25D7CE1F93CF93DF93CDB7DEB710
:102870002C970FB6F894DEBF0FBECDBF4F8358879D
:1028800069877A878B879C87CE0107960E948F1273
:10289000882369F08A859B85892B39F04F8158857B
:1028A000842F85238F3F09F071C016E05FC086E05A
:1028B000FE013796DE01119601900D928A95E1F79F
:1028C0008A859B85892B89F38F81988589238F3F02
:1028D00061F32091480230E0C90101968770992781
:1028E000409147024817190671F40E94E10F1092B7
:1028F00048021092470286E0E9E7F2E0DF011D920C
:102900008A95E9F7D2CF96E0929FD001939FB00DC0
:102910001124A75BBD4FFE01319601900D929A954F
:10292000E1F7809348020E94FF11BFCF819FC00151
:102930001124875B9D4F0E948F128823E9F0E0915C
:1029400047021E9FF0011124E75BFD4F408151813A
:1029500062817381848195810E941A10809147025F
:1029600090E00196877099278093470280914702F3
:10297000909148028913DACF2C960FB6F894DEBFF7
:102980000FBECDBFDF91CF911F91089569857A85E4
:102990008B859C850E941A1088CF682F8091020138
:1029A000909103010C94C129682F809102019091AC
:1029B00003010C94C32980910201909103010C94AE
:1029C000C52980918002859585958595089580918A
:1029D00080028770089582E080937F0281E0809377
:1029E0001602089510927F021092160208958091A7
:1029F0007F02823021F481E080937F02089583304A
:102A000011F40C94F214089580917F02823021F425
:102A100083E080937F020895813011F40C94F214C6
:102A2000089590918002977081E009F480E0089504
:102A300080918C02089590918C02892B80938C0256
:102A40000895809590918C02982390938C0208951C
:102A500010928C02089590918B02892B80938B02A7
:102A60000895809590918B02982390938B020895FE
:102A700010928B02089510928A020895809181022B
:102A8000089508950C9441159091230392FD08C078
:102A900090918102981721F0809381020C94421545
:102AA000089580918102882329F01092810280E0AC
:102AB0000C9442150895E0910201F0910301809178
:102AC0008C028083E0910201F0910301808190915A
:102AD0008B02892B8083E0910201F09103018081B8
:102AE00090918A02892B808390918102992381F0B1
:102AF000E0910201F09103018081892B8083809114
:102B00000201909103010E94792981110E945115BF
:102B100080910201909103010C94012908950C9475
:102B20008E159091230392FD10C098E0899F90012B
:102B30001124622B609380020E949C10809180027D
:102B40008595859585950C948F150C949C10109205
:102B5000800280E00C948F159091800280958923EB
:102B600080938002282F277091F4282F082E000CC4
:102B7000330B9217130659F09091230392FD07C06F
:102B80008595859585950E94BD100C94A71508958F
:102B9000CF93C82F8091230382FB992790F99C172C
:102BA000E9F0C0FB82F98093230380912203909186
:102BB00023030E94251682E00E94AC158091A40296
:102BC00080FF0CC01F92CF938FEE95E09F938F9361
:102BD0000E9417080F900F900F900F90CF910895BB
:102BE0008091230382FB882780F991E089270C9448
:102BF000C81581E00C94C81580E00C94C81590E0CD
:102C000080E00E94A03221E0893E9E4F09F020E042
:102C1000822F089582E090E00C94983283E090E057
:102C20000C949832682F83E090E00C94A632CF93F6
:102C300084E090E00E949832C82F82E290E00E94E7
:102C40009832982F8C2FCF910895CF93C92F682F4A
:102C500084E090E00E94A6326C2F82E290E0CF9157
:102C60000C94A632AB01BC018FE090E00C94B8321A
:102C7000AB01BC0183E190E00C94B83260E070E0FD
:102C8000CB010C94381660E070E0CB010E94321644
:102C90000C943E1669EE7EEF90E080E00E94C43214
:102CA00060E082E090E00E94A63260E083E090E085
:102CB0000E94A632109243021092440210924502E2
:102CC0001092460260E084E090E00E94A63260E04C
:102CD00082E290E00E94A63260E085E090E00E94EF
:102CE000A63260E086E090E00E94A6326FEF87E0B7
:102CF00090E00E94A63240E050E0BA0188E090E007
:102D00000E94B83260E08DE090E00E94A63240E080
:102D100050E0BA0188E190E00E94B83260E087E1BB
:102D200090E00E94A63240E050E0BA018CE190E0D1
:102D30000E94B83270E060E080E290E00E94C4320D
:102D400040E050E0BA0188E190E00E94B8320C9473
:102D500043160C944A16682F8EE090E00C94A6322D
:102D60000E94682A6093A0027093A1028093A2023D
:102D70009093A30260939C0270939D0280939E02A5
:102D800090939F0208950E94682A6093A002709316
:102D9000A1028093A2029093A30260939802709381
:102DA000990280939A0290939B02089585B7806858
:102DB00085BF85B7806885BF0895089508950C94F0
:102DC000DD1608950C94E1160E94D61684E89CE264
:102DD0000E94E1280E94DE160C94DF160C94301C31
:102DE000089508950E94F0160C94F1160E94532A3B
:102DF0000E94BE190E94181B0E940B1F80E00E94B7
:102E0000691F0E94C2230C94E216CF93C82F8091B1
:102E1000A40282FF1EC080FF1CC08BE096E00E94CF
:102E20007E078091A40280FF14C01F92CF9386E09A
:102E300096E09F938F930E9417088091A4020F90B1
:102E40000F900F900F9080FF04C084E096E00E94E6
:102E50007E078C2FCF910C94AD0B9F92AF92BF92B7
:102E6000CF92DF92EF92FF920F931F93CF93DF9356
:102E7000CDB7DEB72A970FB6F894DEBF0FBECDBF31
:102E80000E94A61BC82E81110E94B0168EE8A82EA3
:102E900082E0B82E10E000E0902E802F0E942A1AC7
:102EA000E82EF501F1905F01F81609F45AC08091FF
:102EB000A40281FD0E94301A8F2D8E25D12CFF2473
:102EC000F394982F9F2109F447C00E94EE1688239F
:102ED00099F0DE829F82EF2081E009F480E088870C
:102EE0000E945C2A8160782F9A8789874E815F8152
:102EF00068858A850E94EA0BF801E257FD4F8081C0
:102F0000F826F0820E941F24182F81110E94C316F8
:102F10000E945C22C11001C011110E94FB200E947E
:102F2000EB2890918D02891799F10E94EB288093EC
:102F30008D022A960FB6F894DEBF0FBECDBFDF918B
:102F4000CF911F910F91FF90EF90DF90CF90BF90A6
:102F5000AF909F900C940517D394FF0CF6E0DF120E
:102F6000B0CF0F5F1F4F0A30110509F095CF8FEFDB
:102F700089838A831B820E945C2A8160782F9D83CB
:102F80008C8349815A816B818D810E94EA0BBACF73
:102F90002A960FB6F894DEBF0FBECDBFDF91CF915A
:102FA0001F910F91FF90EF90DF90CF90BF90AF9067
:102FB0009F900895CF93DF930E94E418EC01811550
:102FC00022E59207E8F5811531E5930708F0AFC0D7
:102FD000883E910510F5803E910570F5883A91057F
:102FE00070F4853A910508F07BC08130910521F19C
:102FF000009711F1049700F5D0E0C0E01DC08F3BB1
:103000009105D0F7C85AD0E0CC0FDD1FC258DE4F73
:103010000990D881C02DD4640FC0811540E5940774
:1030200008F069C0C11580E4D80708F061C0CE017E
:103030009A9581159F4100F7CE01DF91CF910895B8
:10304000811536E5930718F5811545E5940708F0D5
:1030500086C0C11584E5D80708F07CC09C2F9695E2
:1030600096959E0123703327C115D34508F464C09B
:10307000C1E0D0E002C0CC0FDD1F2A95E2F730E2BC
:10308000939FC0011124C82BD92BDA68D5CFC11565
:1030900089E5D80768F4C11598E5D90708F069C033
:1030A000C11527E5D20708F0A7CFDD27D066C4CF2A
:1030B000C1153AE5D30708F461C0CE0190568115D9
:1030C000904208F099CF8D2F8F710E947B1990E06C
:1030D000982F882788279F719C012C2BE90147C0D6
:1030E000C55AD0E0C455DE4FC881D0E0D064A4CF2B
:1030F000DF70D06AA1CFE4E096958795EA95E1F775
:1031000083702C2F26952695237090E2299F90019D
:103110001124382B8C2F8370C1E0D0E002C0CC0F7B
:10312000DD1F8A95E2F7C22BD32BDC6885CFD82F21
:10313000CC27C16FD06A80CFC1E0D0E002C0CC0FF5
:10314000DD1F2A95E2F720E2929FC0011124C82BCF
:10315000D92BEBCFDC2FCC27C46FD06A6DCF0E9468
:103160007B19C82FD0E0DC2FCC27CC27DF71D062B1
:1031700063CFDC2FCC27C06FD06A5ECF8C2F8F70CF
:103180000E947B1934E0D695C7953A95E1F7CF7048
:103190009C2FEC01D06950CF972F70E026E0929FD2
:1031A000600D711D1124FB019CE3899FE00DF11D51
:1031B0001124EE0FFF1FEC58FC4F85919491089558
:1031C0000E94CC180C94DA1782389105B1F1B0F452
:1031D0008133910509F475C048F48932910509F4E9
:1031E00069C08A32910509F473C008958533910549
:1031F00009F459C08933910501F10895833E910581
:10320000A9F138F4803E9105F9F0823E910549F12B
:103210000895863E9105A9F1873E9105C9F1843E46
:10322000910519F52091230321FF1FC080912203EE
:1032300084FD14C087EE90E008952091220323704E
:10324000A1F080EE90E008952091220320FD47C078
:103250003091230330FF09C024FF44C090E080E098
:1032600004C02091220322FDF7CF0895209122036C
:1032700022FD3BC03091230330FDE3CF24FFF5CF87
:10328000EDCF2091220323FFF0CF24FDE7CFD2CF53
:103290002091220323FD2CC03091230331FFEECF78
:1032A00084EE90E008952091220325FFDECF89E28D
:1032B00090E008952091220325FFD7CF85E390E089
:1032C00008952091220326FFD0CF8AE290E008954E
:1032D0002091220326FFC9CF81E390E0089589E37E
:1032E00090E0089583EE90E0089582EE90E00895D6
:1032F00086EE90E008959091220392FF06C0282F59
:1033000028712830F9F4877F846093FF06C0282F46
:1033100028712831F1F4877E84612091230320FFF6
:1033200006C0382F38713830D9F4877F816021FF8B
:1033300006C0282F28712831D1F4877E816194FD41
:10334000877E0895282F24712430F9F68B7F8860BA
:10335000DCCF282F2471243101F78B7E8861DDCFEB
:10336000382F3171313019F78E7F8860E0CF282FE8
:103370002171213121F78E7E8861E1CF10921E03E9
:1033800010921F0310922003109221030895CF92F0
:10339000DF92EF92FF926B017C010E94301C811141
:1033A0000EC00E94682AC61AD70AE80AF90AC09213
:1033B0001E03D0921F03E0922003F0922103FF909E
:1033C000EF90DF90CF9008950F931F930E94301CD1
:1033D000882321F01F910F910C94682A0E94682A7B
:1033E00000911E0310911F032091200330912103AF
:1033F000600F711F821F931F1F910F9108950895F1
:103400000E94FF15811102C00E94A9160E940A168F
:103410008093A4020E9417169093230380932203A3
:103420000E94FF190E940E16682F70E090E080E065
:103430000E943A1060913F027091400280914102D7
:10344000909142020C94741008950C94241A0895DB
:103450000C94271AE82FF0E0E25DFC4F808108957C
:10346000CF92DF92EF92FF920F931F93CF93DF9350
:103470008DE296E00E947E078EE2E82E83E0F82E31
:10348000D0E0C0E098E2C92E96E0D92E00E216E026
:10349000DF93CF93DF92CF920E94170885E296E0E8
:1034A0000E947E07F70181917F010E948D0B1F9280
:1034B0008F931F930F930E9417088EE196E00E944E
:1034C0007E0721968DB79EB708960FB6F8949EBFDB
:1034D0000FBE8DBFCA30D105D9F6DF91CF911F91B4
:1034E0000F91FF90EF90DF90CF90089580EA8A953A
:1034F000F1F7089500C008950C94761AF894E82F17
:10350000E295EF70F0E031A1282F2F7081E090E07C
:1035100001C0880F2A95EAF7982F9095932391A3DD
:1035200092A1892B82A37894089508950C94951AFA
:10353000CF93DF93C5EBD1E089918F3F11F00E94CB
:103540007E1A81E0CA3BD807B9F7CFEAD1E089916A
:103550008F3F11F00E947E1A81E0C53BD807B9F772
:10356000DF91CF910895CF92DF92EF92FF920F9368
:103570001F93CF93DF93EC01D62E062F10E0C801E6
:103580008B549E4F7C01FC0180818F3F09F445C024
:10359000F894E82FE295EF70F0E091A18F7021E0B0
:1035A00030E001C0220F8A95EAF7892F822B81A390
:1035B00082A12095282322A378940E947A1AEFEA08
:1035C000F1E045EB51E031E0C12C21912F3F71F149
:1035D000A22FA295AF70B0E090968C9190E02F70E2
:1035E00002C0959587952A95E2F780FD1FC0832F2D
:1035F000C82A330F4E175F0741F7F70180818F3FCD
:1036000011F00E947E1A61E0C11001C060E08D2DB2
:103610000E947C1AC00FD11FC882DF91CF911F91E9
:103620000F91FF90EF90DF90CF90089580E0E0CF72
:103630000E944A1C809104018091040195E081114F
:1036400090E09093390385E0891B809338030E94B2
:10365000981A8AE0EEE2F3E0DF01982F1D929A9526
:10366000E9F7E4E2F3E0DF011D928A95E9F785E0EE
:103670000E94F91B0E94B30A0C94541CEF92FF9213
:103680000F931F93CF93DF9300D000D00F92CDB74D
:10369000DEB70E94301CF82E60913903882309F4AC
:1036A00048C085E0E82E8E010F5F1F4FF8018E2D78
:1036B00011928A95E9F7862F90E0B801825D9C4FC0
:1036C0000E94621C8823F9F08091380390E045E065
:1036D00050E0B801825D9C4F0E94823221E020932D
:1036E000A502892BD1F4F12C0E94B90A8F2D0F90DD
:1036F0000F900F900F900F90DF91CF911F910F912E
:10370000FF90EF9008958091A502882361F3F8015E
:103710001192EA94E9F71092A502A0913803B0E063
:10372000A25DBC4F85E0F80101900D928A95E1F70A
:10373000DBCF70E0625D7C4F8091380390E0825D6A
:103740009C4F0E94051D0E94961AD0CFEF92FF92C7
:103750000F931F93CF93DF93CDB7DEB72A970FB6A2
:10376000F894DEBF0FBECDBF8E010F5F1F4F8AE002
:10377000F80111928A95E9F7F12C6F2DC8010E948A
:10378000B31AF394F5E0FF12F8CF4AE050E0B80125
:1037900084E293E00E9482327C0121E0892B09F4CB
:1037A00020E0E114F10441F08AE0F801A4E2B3E082
:1037B00001900D928A95E1F76091390370E0625DA6
:1037C0007C4F45E084E293E00E94FA1B81E090E0A8
:1037D000EF2811F40E943E1B2A960FB6F894DEBF24
:1037E0000FBECDBFDF91CF911F910F91FF90EF9052
:1037F00008950895FF920F931F93CF93DF93F82EB0
:10380000092F162FD72FC42F222349F081E0809350
:10381000A8020E945C2A9093A7028093A60280913E
:10382000A8028823A1F08091A6029091A7020E948D
:10383000742A059760F0EF2DF02FA12FBD2FCE0F2A
:10384000DF2FD11DEC17FD0741F41092A802DF9184
:10385000CF911F910F91FF90089581918D93F2CF99
:103860008091AB02811107C00E943232882351F04F
:1038700081E08093AB0281E09091AB02913009F03E
:1038800080E0089582E08093AB020E942D32F3CF56
:103890000C94301C0E94481C809304010E94301C30
:1038A00081110C94AE1C08950E94301C811102C03D
:1038B0000C94B01C089581E09091AC029A3008F00D
:1038C00080E00895EF92FF920F931F93CF93DF93C1
:1038D0008C017B01D091AC02DA30D0F4B701C80181
:1038E0000E94031DC82F81112CC08091AC028F3F14
:1038F00009F50E945C2A9093AA028093A902809104
:10390000A40280FF0EC08FE496E00E947E070AC0EA
:103910008091A9029091AA020E94742A843F91404A
:10392000E8F6C0E08C2FDF91CF911F910F91FF90AF
:10393000EF9008958F5F8093AC028A30D0F6C1E09B
:10394000F1CFDA3040F08091A40280FF04C08CE314
:1039500096E00E947E071092AC02E4CF0C942027E0
:103960000C942327EF92FF920F931F93CF93DF9333
:103970007901C82F880FDD0B41155105A9F08AE0A8
:103980008C9FF0018D9FF00D1124EB5FFE4F838122
:10399000948183559D4F228130E04217530708F4EC
:1039A0009A01A9010E948F32CE010E942D28892BF5
:1039B00011F501151105E9F08AE08C9FF0018D9F4A
:1039C000F00D1124EB5FFE4F458150E00417150701
:1039D00008F4A8018AE08C9FF0018D9FF00D11245E
:1039E000EB5FFE4F6681778163557D4FC7010E9473
:1039F0008F3281E001C080E0DF91CF911F910F9164
:103A0000FF90EF9008950C94781E0C94A21E0F93D3
:103A10001F93CF93DF9300D000D0CDB7DEB7609176
:103A2000CA027091CB028091CC029091CD020E948B
:103A3000832A11E0643671058105910518F10E9411
:103A4000E4196E5F7F4F8F4F9F4F69837A838B831B
:103A50009C8310E000E030E020E044E050E0BE0154
:103A60006F5F7F4F84E00E94B21C182F882351F0B3
:103A70000E94682A6093CA027093CB028093CC02A2
:103A80009093CD02812F0F900F900F900F90DF91A8
:103A9000CF911F910F9108957F928F929F92AF9235
:103AA000BF92CF92DF92EF92FF920F931F93CF932B
:103AB000DF930F92CDB7DEB7762E4A015901680128
:103AC00001E010E09E012F5F3F4F50E040E070E0CA
:103AD00060E00E94B21C182F882309F43EC0F40154
:103AE00060817181828193810E94832A643671058D
:103AF0008105910558F18701950150E040E070E0A3
:103B000060E0872D0E94B21CB82EB701C6010E944A
:103B10000C1F11E09981981310E01B2139F00E94CD
:103B2000682AF4016083718382839383812F0F90CD
:103B3000DF91CF911F910F91FF90EF90DF90CF9089
:103B4000BF90AF909F908F907F900895B701C6016E
:103B50000E940C1F99818913CECFA701B601C50120
:103B60000E948F32E3CFEF92FF920F931F93CF9378
:103B7000DF930F92CDB7DEB70091BF011091C00166
:103B8000095F1F4FEE24E394F12C9E012F5F3F4FFE
:103B900046EC52E063E082E00E944C1D182F88231F
:103BA00021F0CE0101960E949124812F0F90DF9188
:103BB000CF911F910F91FF90EF900895CF92DF92D8
:103BC000EF92FF920F931F93CF93DF9300D000D01B
:103BD0000F92CDB7DEB76B010091BF011091C0010C
:103BE0000F5F1F4F85E0E82EF12C9E012F5F3F4FA6
:103BF00042EC52E061E080E00E944C1D882349F0D5
:103C000095E0FE013196ADEBB2E001900D929A95F0
:103C1000E1F795E0EDEBF2E0D60101900D929A9577
:103C2000E1F70F900F900F900F900F90DF91CF91D1
:103C30001F910F91FF90EF90DF90CF9008957F92AA
:103C40008F929F92AF92BF92CF92DF92EF92FF92AC
:103C50000F931F93CF93DF937C015B01842E752E0E
:103C600069010E945B1C01E010E0882311F00AE06A
:103C700010E0C1E0D0E0F894B501C701F601099564
:103C8000982E7894811114C021960C171D07FCF40E
:103C90008091A40280FF0CC07F928F9285E896E00D
:103CA0009F938F930E9417080F900F900F900F9083
:103CB000892DDF91CF911F910F91FF90EF90DF90B1
:103CC000CF90BF90AF909F908F907F900895CC9FA2
:103CD0009001CD9F300D300D112490E080E045E340
:103CE0004A95F1F70000019628173907C1F7C3CFAD
:103CF0000F931F93CF93DF93EC018B012EED3DE1EA
:103D000041EC51E00E941F1E8823B1F023EB3DE1FE
:103D10004EEC51E0B801CE010E941F1E882361F0D5
:103D200027E03DE146ED51E0B801CE01DF91CF91B2
:103D30001F910F910C941F1E80E0DF91CF911F9176
:103D40000F9108950F931F93CF93DF930F92CDB7E9
:103D5000DEB7F8940091BF011091C001C80101962F
:103D600025E0FB01DC0101900D922A95E1F765E069
:103D700070E00E940C1FF80180837894F894CE01C3
:103D800001960E9488248981F801878361E070E0B0
:103D9000CE0101960E940C1FF80186837894F89456
:103DA00060857185828593850091B9021091BA0270
:103DB0002091BB023091BC02601771078207930704
:103DC00051F06093B9027093BA028093BB02909352
:103DD000BC020E94C71978940F90DF91CF911F9178
:103DE0000F9108950E94FF2C0E94F6160C940B2D43
:103DF0000E940F2D0E942D170C942D2D0E94E62954
:103E00000E94E62C0E94E4160E94F21E0E94F81EF8
:103E10000E94F216FBCF0895FC01680F791F8FEF07
:103E200091E36E177F0709F408952191822728E016
:103E300030E087FF06C0880F892721503109C9F774
:103E4000F0CF880FFACFCF92DF92EF92FF920F93CD
:103E50001F93CF93DF936C017B0164E670E088E7EA
:103E60000E94BE25EC0197FD12C010E000E0F601B3
:103E7000E00FF11F849164E670E00E943826EC01A7
:103E8000892B29F40F5F1F4F0E151F0581F70E9424
:103E9000BB26CE01DF91CF911F910F91FF90EF9044
:103EA000DF90CF9008950895EBE3F3E080E092E097
:103EB000DF019C011D9221503040E1F7F093420553
:103EC000E09341058FEF9FEF9093FA028093F90200
:103ED00008950E94531F0E9420088093F50280FDE0
:103EE00013C080E88093F4020E94B8256DE070E072
:103EF00083EA97E00E94231F892B41F087E897E02F
:103F00000E947E0780E0089580E2ECCF8091F50268
:103F100063E070E081FD09C084E897E00E94231F00
:103F2000892B61F08EE597E0EBCF8BE597E00E945F
:103F3000231F892B19F083E497E0E2CF6DE070E056
:103F400086E397E00E94231F892B19F08FE197E009
:103F5000D7CF0E94682A605A75418F4F9F4F609358
:103F60003D0570933E0580933F05909340050E9468
:103F7000541F81E08093F8028093F7021092F602BA
:103F800008952091F40236E0839FC0011124629FBE
:103F9000800D911D1124811522E0920714F090E00C
:103FA00080E0855C9C4F9093420580934105089585
:103FB0002091410530914205255333404091F40250
:103FC000642F70E0C9010E944B32481B463010F448
:103FD000240F311D211582E0380710F030E020E079
:103FE000255C3C4F309342052093410508951F9373
:103FF000CF93DF93162F8A3031F481E0DF91CF9198
:104000001F910C9471208D3011F480E0F7CFC09196
:104010004105D091420596E0FE01AEECB2E0019080
:104020000D929A95E1F7803EC8F086E0FE0111926C
:104030008A95E9F711111EC0C0914105D091420542
:1040400046E050E0BE018EEC92E00E948232892B65
:10405000F9F4DF91CF911F910C94D81FF6E08F9F58
:10406000B00111246055784F46E050E0CE010E9427
:104070007932E0CFE0914105F09142059F012A5F3E
:104080003F4F2E173F07C1F2808180958193F9CF72
:10409000CB53D340CE0125E0969587952A95E1F73D
:1040A00021E030E0A90102C0440F551F8A95E2F7D4
:1040B000CA014091F9025091FA02842B952B259662
:1040C00045E0D695C7954A95E1F702C0220F331F08
:1040D000CA95E2F7822B932B9093FA028093F90210
:1040E000B8CFCF93382FE0914105F0914205EB53C3
:1040F000F3402091F402622F70E0CF010E944B3216
:10410000281B822F332369F066E00E943F32C82FBC
:10411000C15010F4CF91089560E080E20E94F71F33
:10412000F7CF9F01280F311D2115324018F080E094
:10413000F0E0E0E08E0F9F2F911D855C9C4F9093E7
:10414000420580934105E6CF1F93CF93DF93EC01A7
:10415000162FFE018491811104C0DF91CF911F9130
:104160000895612F0E94F71F2196F3CF0E94A4208B
:1041700081E00C947120CF93DF9320914105309121
:1041800042052B533340A901460F571F413052407F
:1041900020F060E072E0621B730B4091F9025091D5
:1041A000FA02FC01C901620F731FC1E0D0E086175B
:1041B000970738F05093FA024093F902DF91CF91BC
:1041C00008952491DC01A55CBC4F3C91321781F02D
:1041D0002C939C01A5E036952795AA95E1F7DE0181
:1041E00002C0AA0FBB1F2A95E2F79D014A2B532B51
:1041F00001963196DCCF8091F802811103C0809145
:10420000F70208950E94682A605A75418F4F9F4FA8
:1042100060933D0570933E0580933F059093400564
:104220008091F7028111EBCF62E070E086EC96E0BE
:104230000E94231F892B29F082EB96E00E947E07C3
:10424000DECF81E08093F702DACF2F923F925F9228
:104250006F927F928F929F92AF92BF92CF92DF9296
:10426000EF92FF920F931F93CF93DF938091F80209
:10427000882369F02091F9023091FA022115310565
:1042800031F08091F60261E070E0882399F0DF91CF
:10429000CF911F910F91FF90EF90DF90CF90BF9043
:1042A000AF909F908F907F906F905F903F902F90F6
:1042B00008958F5F082F10E01B01082E02C0220C0A
:1042C000331C0A94E2F7A90142215321452B89F3BB
:1042D0009091F50290FD31C08295880F8076809391
:1042E00039019801369527953695279520933C01FD
:1042F000815E80933A0110923D0124E630E047E070
:1043000050E067E371E088E70E946726892B19F186
:104310008CEF96E0DF91CF911F910F91FF90EF907E
:10432000DF90CF90BF90AF909F908F907F906F90D5
:104330005F903F902F900C947E07880F880F880F16
:104340008093390110923C01895F80933A0183E0A8
:1043500080933D01D2CFA80125E0440F551F2A9537
:10436000E1F78091F50280FD10C0455C5C4F04E6EA
:1043700010E020E230E060E488E70E948E26892B7E
:1043800009F469C083EE96E0C5CFE4EDF2E080E287
:10439000DF011D928A95E9F7A5EEB1E001EE11E08B
:1043A00089EEC82E81E0D82E97E0592E7724739499
:1043B0008D91E80129918E01240F352F311D255C47
:1043C0003C4FE82FF0E0EC52FD4F90E080E0652C90
:1043D000681A872C082E01C0880C0A94EAF7790124
:1043E000A12CE701B9907E01B820662D6A1967708B
:1043F000962E062E000C770BDB2D01C0DD0F9A9454
:10440000EAF77195619571096770772701C0B694D5
:104410006A95EAF7BD2A6081962E9B289082A39424
:1044200068E0A612DECF019631968830910579F6C4
:10443000CA16DB0609F0BCCF04E610E020E230E04B
:1044400044ED52E060E488E70E948E26892B19F043
:1044500088EC96E05FCF0E94FB20E101C095D095EB
:104460008091F9029091FA02C823D923D093FA02DD
:10447000C093F9020CCF8091F7029091F80291114C
:1044800003C091E089270895882389F062E070E0F5
:1044900080EB96E00E94231F892B39F08BE996E090
:1044A0000E947E078091F70208951092F702809192
:1044B000F702E7CF0C9429080F931F938091F8021D
:1044C000882389F180913B0590913C050E94742AD4
:1044D000C29760F00E945C2A90933C0580933B0554
:1044E00060E080E00E94C11F0E945A220E942521A4
:1044F0008091F7028823B9F00E94682A00913D0557
:1045000010913E0520913F0530914005601B710BD5
:10451000820B930B6F3F7F4F8F4F9F4720F41F916C
:104520000F910C943B221F910F910895CF93DF932D
:10453000EC01FB018281882309F420C1C430FDE530
:10454000DF07C8F5CB3F9CE5D90730F49E01225028
:104550003C452431310598F50E94171690932303AA
:1045600080932203C031FCE5DF0709F4E0C008F0C6
:1045700061C0C8309CE5D90709F4CBC088F5C430C8
:10458000FCE5DF0709F4B3C0E8F4C2309CE5D907C5
:1045900009F4A7C0809122038260C330DC4509F48E
:1045A000A3C080912203909123030E9425160E94AC
:1045B000E10F80E004C0C236EDE5DE0769F2DF916D
:1045C000CF910895809122038061C630FCE5DF071A
:1045D00009F48AC008F48FC080912203806284C0ED
:1045E000809122038D7FCC309CE5D90709F47CC0F3
:1045F00070F4809122038C60CA30FCE5DF0709F477
:1046000073C008F48AC0809122038E7F6DC08091B0
:104610002203877FCE309CE5D90709F465C08091DD
:1046200022038B7FCF30DC4508F45EC080912203EB
:104630008F7E5AC0CD3FFCE5DF0709F474C040F51A
:10464000C4319CE5D90709F48AC058F4C231FCE5AD
:10465000DF0709F474C008F46EC080912203837FE1
:1046600043C0CB3F9CE5D90709F449C008F04DC0D1
:10467000C531DC4509F095CF8091220382FB992753
:1046800090F921E0922790FB82F990FB83F92CC0EE
:10469000C1308DE5D80709F458C088F48091230310
:1046A0008360CF3FECE5DE0769F1809123038D7FC6
:1046B000C115DD4538F1809123038C7F23C0C330C1
:1046C0008DE5D80709F458C008F452C0C236DD455C
:1046D00009F067CF90912203892F8F7E94FF80612C
:1046E00003C0809122038160809322035ACF80917E
:1046F00022038460F9CF809122038860F5CF8091F6
:1047000023038160809323034CCF80912303826035
:10471000F9CF809122038064E7CF0E94E10F80915E
:1047200022038068E1CF809123038E7FEBCF8091BD
:1047300022038F7DD9CF809122038F7BD5CF0E941A
:10474000E10F809122038F77CFCF80912303982FA1
:10475000909591708E7F892B90FB81F9D3CF0E9429
:10476000E10F90912203892F97FB87F98058BCCFE6
:1047700081E00E94AB1615CF80E0FBCF81E01FCF18
:104780000C94D20980910401811106C084EF8093BA
:104790003F0185EF80933E0120913F01A22FA2951A
:1047A000AF70B0E091963C9191972F7081E090E0CE
:1047B000BC01022E01C0660F0A94EAF7462F40950D
:1047C000432391964C93919792963C919297362BD6
:1047D00092963C93929740913E01E42FE295EF70C0
:1047E000F0E031A14F70042E01C0880F0A94EAF75F
:1047F000982F9095932391A392A1892B82A39096B1
:104800008C9190E002C0959587952A95E2F781708A
:1048100020A130E002C0359527954A95E2F792E055
:1048200020FF90E0892B809300039091040181E0A8
:1048300098279093FC02891B8093FB020895CF93E5
:10484000E0910003EE0FEE0F20913F01A22FA29501
:10485000AF70B0E090968C9190E02F7002C095956B
:1048600087952A95E2F78170992740913E01A42F00
:10487000A295AF70B0E090962C9130E04F7002C0DE
:10488000359527954A95E2F7A9014170552720FFF4
:1048900002C042E050E0842BE82BE0930003C0917B
:1048A000FC02EF70F0E0E751FE4F80819091FF0233
:1048B000890F8093FF0220E0823064F0EC2FF0E05B
:1048C000E350FD4F80818F5F808360E08C2F0E94DA
:1048D000C02321E08091FF028F3F64F4EC2FF0E0D1
:1048E000E350FD4F80818150808361E08C2F0E94D6
:1048F000C02321E08091FF02082E000C990B62E09A
:1049000070E00E945F328093FF02822FCF91089562
:10491000E091FC02F0E0E350FD4F2081FC01208398
:104920000895FF920F931F93CF93DF93D091FB02D3
:104930000D2F10E003501D4FFC01C081F801808154
:10494000C81BFC2E80E01F147CF09C2FC7FD90E05C
:10495000C91BC11114C08823E9F0DF91CF911F91C9
:104960000F91FF900C94C316FA94F80180818F5F29
:10497000808360E08D2F0E94C02381E0E4CFCF5F71
:10498000F80180818150808361E08D2F0E94C023D7
:1049900081E0DFCFDF91CF911F910F91FF900895BC
:1049A000CF93DF93EB0186319C4511F50E941815DA
:1049B0009A81992399F08A7A91E009F490E0909392
:1049C0000103811109C089E20E94CD140E945B1588
:1049D00080E0DF91CF91089585E3F6CF80910103C8
:1049E000811104C089E20E94D414F0CF85E3FBCF8B
:1049F00081E0EFCF0F931F93CF93DF93C42FD22F7C
:104A0000FC0182818823C9F0409304030E945C2A40
:104A1000909303038093020380E28C0F883008F0A8
:104A200050C0C77081E001C0880FCA95EAF7DF91D6
:104A3000CF911F910F910C94D70C10910403141374
:104A400035C080910203909103030E94742A84363A
:104A5000910560F5C0E2CD0F1D17B9F080E2810F1E
:104A6000883040F4177081E001C0880F1A95EAF78A
:104A70000E94DE0CC83048F481E09D2F977001C081
:104A8000880F9A95EAF70E94D70C802F0E94CF0CCE
:104A9000C830B8F4D77081E001C0880FDA95EAF722
:104AA000DF91CF911F910F910C94DE0C80E28C0F5F
:104AB000883038F4C77081E001C0880FCA95EAF7E2
:104AC000EFCFDF91CF911F910F9108950F939C012C
:104AD000CB01243F4CE5340759F1A8F4293DFCE50E
:104AE0003F0701F12A3D4CE53407D1F1283D3C4513
:104AF00091F406E221EE41EE68ED7CE50E94FA2495
:104B000080E00F910895263FFCE53F07E9F0B0F003
:104B1000273F3C45F9F0FC018281882339F110924E
:104B20000403EFCF07E225EE45EE69ED7CE5E6CF25
:104B300006E221EE40EE64EF7CE5E0CF07E225EEF1
:104B400044EE65EF7CE5DACF06E221EE42EE66EF59
:104B50007CE5D4CF07E225EE46EE67EF7CE5CECFCD
:104B600008E221E045EE6AED7CE5C8CF81E0C9CFDF
:104B70001092B9008CE08093B80008959F92AF9294
:104B8000BF92CF92DF92EF92FF920F931F93CF933A
:104B9000DF93B82EEB010E945C2A6C01EE24E394B3
:104BA000F12CC431D10560F025E0E22EF12CCF3F8D
:104BB000DC0731F0CE0164E170E00E944B327B01F2
:104BC00084EAA82E94E8992E1092BC00A092BC0012
:104BD0000E945C2A8C018091BC0087FF0DC08091EF
:104BE000B900887F883039F18091B900887F8031A1
:104BF00011F10FEF1FEF09C00E945C2A801B910B7F
:104C00008E159F0540F30EEF1FEFCF3FDC07E1F25B
:104C1000C6010E94742A8C179D07B0F2C801DF916B
:104C2000CF911F910F91FF90EF90DF90CF90BF90A9
:104C3000AF909F900895B092BB009092BC000E94EC
:104C40005C2A8C018091BC0087FF0AC08091B9006A
:104C5000887F883111F0803461F610E000E0DECF0B
:104C60000E945C2A801B910B8E159F0558F3CBCFB9
:104C70000F931F93CF93DF93EB018093BB0084E8E6
:104C80008093BC000E945C2A8C018091BC0087FF4D
:104C900011C02091B900287F81E090E0283211F402
:104CA00090E080E0919581959109DF91CF911F91DE
:104CB0000F910895CF3FDC0741F30E945C2A801BCF
:104CC000910B8C179D0708F38EEF9FEFEECFCF92DD
:104CD000DF92EF92FF920F931F93CF93DF936B01BD
:104CE0008A017901B9010E94BE25E6010C0D1D1D46
:104CF000C017D10761F424E92093BC00DF91CF9164
:104D00001F910F91FF90EF90DF90CF90089597FD46
:104D1000F2CFB70189910E943826EACFCF92DF9275
:104D2000EF92FF920F931F93CF93DF93C62F6A01E9
:104D30007901B8010E94BE2597FD0CC0B8018C2FE7
:104D40000E943826E601EC0CFD1CCE15DF0511F0A3
:104D500097FF0CC024E92093BC00DF91CF911F91F5
:104D60000F91FF90EF90DF90CF900895B801899157
:104D70000E943826EACF84E98093BC0008958EE132
:104D80004A9B02C08150E1F74A9BFECF08955A9892
:104D900080E28A95F1F75A9A0895FC013BE03A9532
:104DA000F1F798E020E080E031E040E14A95F1F74A
:104DB000880F4A9B02C08160232742E04A95F1F7A1
:104DC000000040E14A95F1F7915079F790E19A950A
:104DD000F1F799B132E03A95F1F7000040E14A95D8
:104DE000F1F792FB992790F992272081920F9083F7
:104DF0000895EF92FF920F931F93CF93DF930F923B
:104E0000CDB7DEB719828C017C01E60EF11C0E15C0
:104E10001F0561F481E09981911180E00F90DF918D
:104E2000CF911F910F91FF90EF9008950E94BF26A0
:104E3000CE0101960E94CD26F80181938F01E7CF24
:104E4000529A5A9A089552985A9AEA9AE9E6F0E0E4
:104E500080818F7C808308956150770B91E001C041
:104E6000990F6A95EAF720E031E0911108C02223FA
:104E700091F05A9A80E28A95F1F75A980895492F4D
:104E8000482339F05A9A232740E24A95F1F796953C
:104E9000ECCF5A98F9CF5A98EDCFFF920F931F930A
:104EA000CF93DF93EC018C01060F111DC017D107C2
:104EB00031F4DF91CF911F910F91FF900895F990F8
:104EC0000E94C72668E08F2D0E942C27EFCF1F92EB
:104ED0000F920FB60F921124EF92FF920F931F9330
:104EE0002F933F934F935F936F937F938F939F93F2
:104EF000AF93BF93EF93FF93CF93DF930F92CDB711
:104F0000DEB719820E94BF26CE0101960E94CD26EF
:104F1000A82FA695A695A695282F229525709A2F9D
:104F20009570290F922F937026952695920F9827AA
:104F300097708981982B09F075C0A63008F072C06F
:104F400080E18A95F1F75A9A529AB2E0BA95F1F750
:104F500000C05A98EA2EF12CEAE0AE9FD00111244D
:104F6000AB5FBE4F1896ED91FC9119973097B1F059
:104F70006091BF017091C00116962D913C911797D9
:104F8000260F371F13968D919C911497680F791FE8
:104F900015964C91159712968C9109958AE08E9DE5
:104FA000F0018F9DF00D1124EB5FFE4F65816623AC
:104FB00051F02091BF013091C00186819781820F0D
:104FC000931F0E944D270E94C726F0E1FA95F1F742
:104FD0005A9852985A9A80E18A95F1F78AE08E9D04
:104FE00080018F9D100D11240B5F1E4FD80112966A
:104FF0006C911297662371F12091BF013091C0012D
:1050000013968D919C91820F931F0E94F926D801CF
:10501000ED91FC91882311F088E001C082E080834B
:105020000E94BF260F90DF91CF91FF91EF91BF912A
:10503000AF919F918F917F916F915F914F913F9130
:105040002F911F910F91FF90EF900F900FBE0F9037
:105050001F901895ED91FC91DFCF0F931F93CF9385
:10506000DF93EC0106970CF0A9C08AE08C9FF00159
:105070008D9FF00D1124EB5FFE4F80819181892B74
:1050800009F49CC0F894529A5A9885E08A95F1F7F1
:1050900000008C2F869585709C2F9570890F982F16
:1050A000937086958695890F8E0193E0000F111FEE
:1050B0009A95E1F7082B0E94C72600C068E0802F70
:1050C0000E942C27A0E1AA95F1F752985A9A4A9B80
:1050D00027C087E090E04A9925C08AE08C9F800134
:1050E0008D9F100D11240B5F1E4FF8016581662303
:1050F000A1F12091BF013091C00186819781820F7B
:10510000931F0E94F926811128C0529A5A9AD801F9
:10511000ED91FC9182E08083789482E090E016C06B
:1051200000C0D5CF0197B9F4529A5A9A8AE08C9F61
:10513000F0018D9FF00D1124EB5FFE4F0190F08187
:10514000E02D81E08083789481E090E0DF91CF9141
:105150001F910F91089500C0BECF0E94BF26B0E2FC
:10516000BA95F1F75A98529AE0E1EA95F1F78AE098
:105170008C9FF0018D9FF00D1124EB5FFE4F62813B
:10518000662351F02091BF013091C0018381948149
:10519000820F931F0E944D270E94C7268AE08C9F92
:1051A000F0018D9FF00D1124EB5FFE4F0190F08117
:1051B000E02D1082789490E080E0C8CF84E090E009
:1051C000C5CF9093090280930802089590930B0332
:1051D00080930A0308950E94301C811103C08091BE
:1051E00005030895E0910A03F0910B03309721F035
:1051F0000190F081E02D099480E008950E94EB2851
:105200000895EF92FF920F931F93CF93DF938C013A
:10521000E0910A03F0910B033097C1F10280F38112
:10522000E02D09958091A40282FF30C080FF04C068
:1052300088EF9CE00E947E07D0E0C0E082EFE82E7D
:105240008CE0F82E8091A40280FF0EC0F801EC0FD4
:10525000FD1F80811F928F93FF92EF920E9417088B
:105260000F900F900F900F902196C830D10551F7F5
:105270008091A40280FF0AC080EF9CE0DF91CF9173
:105280001F910F91FF90EF900C947E07DF91CF91CB
:105290001F910F91FF90EF90089520910803309196
:1052A00009032817390771F09093090380930803C5
:1052B000E0910A03F0910B03309721F00680F7810B
:1052C000E02D0994089520910603309107032817D3
:1052D000390771F09093070380930603E0910A0366
:1052E000F0910B03309721F00084F185E02D0994B3
:1052F00008959C012E5F3F4FAC01485F5F4F80E0F7
:105300002417350709F40895F90191919F01992314
:10531000B9F38F5FF5CF662349F0FC01329608960A
:105320002191261729F0E817F907D1F780E00895B1
:1053300081E008959C01FC0132969FEF80E041914D
:10534000461751F09F3F19F4411101C0982F8F5F0C
:105350008630A9F79F3F09F40895290F311D97FD65
:105360003A95F90162830895FC01329608962191DD
:10537000261303C0DF0111971C92E817F907B9F74C
:1053800008950C949A290C94B429029626E0FC0105
:1053900011922A95E9F7089508950C94CC2981116A
:1053A00005C081E080930C030C94CD2982E0FACFF4
:1053B00083E080930C030C94CD290C94CF2981E0D9
:1053C00080930C030C94CD290C94DF2908958091CF
:1053D0004B05843031F10E94BB0A10920D0388E125
:1053E00090E020E40FB6F894A895809360000FBE7B
:1053F0002093600083B7817F846083BF83B781601F
:1054000083BF7894889583B78E7F83BF0FB6F89457
:10541000A895809160008861809360001092600080
:105420000FBE089508950895CF930E94122A0E94F6
:10543000A61B0E94132AC0E08C2F0E942A1A8111F9
:1054400005C0CF5FCA30C1F7CF91089581E0FCCF8E
:105450000E94E10F0C943A0B1F921FB61F92112469
:105460008F939F93AF93BF9380910D03811113C0CE
:105470008091430590914405A0914505B091460562
:105480004196A11DB11D8093430590934405A093BF
:105490004505B0934605BF91AF919F918F911F90A5
:1054A0001FBE1F90189582E084BD93E095BD9AEFD2
:1054B00097BD80936E0008952FB7F89480914305AF
:1054C00090914405A0914505B09146052FBF0895E0
:1054D0002FB7F8946091430570914405809145057C
:1054E000909146052FBF08959C014FB7F894809185
:1054F000430590914405A0914505B09146054FBFE5
:10550000821B930B0895CF92DF92EF92FF922FB7F9
:10551000F894C0904305D0904405E0904505F09084
:1055200046052FBFA7019601261B370B480B590BC9
:10553000CA01B901FF90EF90DF90CF900895789461
:105540001F921FB61F9211248F939F93AF93BF9307
:105550008091430590914405A0914505B091460581
:105560000196A11DB11D8093430590934405A0931E
:105570004505B0934605BF91AF919F918F911F90C4
:105580001FBE1F90189587E797E7909301088093B7
:10559000000888E19AE00FB6F894A895809360001F
:1055A0000FBE90936000FFCF80911C030895089573
:1055B000CF93DF93EC0181E08093E9008FEF90912E
:1055C000E800815095FD06C095ED9A95F1F7000031
:1055D0008111F5CF8091E80085FF14C050E040E0D4
:1055E00068E070E0CE010E949D2D8091E8008E77EA
:1055F0008093E80088E0FE01A4E1B3E001900D9201
:105600008A95E1F7DF91CF9108958093100370930D
:1056100012036093110380914B05843001F582E001
:105620008093E9008FEF9091E800815095FD06C0CE
:1056300095ED9A95F1F700008111F5CF8091E80082
:1056400085FF0DC050E040E063E070E080E193E052
:105650000E949D2D8091E8008E778093E800089548
:10566000BC0184E00C94052BBC0183E00C94052B59
:1056700008958EE19DE00E947E0780914A05811188
:1056800009C00E942D2F0E948A2F8091E200846021
:105690008093E20008958AE19DE00E947E071092C7
:1056A0004A05089586E19DE00E947E070C94DF295B
:1056B00082E19DE00E947E076091470581E06111D3
:1056C00001C080E00C94D8298EE09DE00E947E0706
:1056D00090914B0581E0943009F080E0609147059E
:1056E0000C94DD2920910F032F5F822F62E30E942B
:1056F0003F32992319F020930F03089510920F035E
:10570000809113038823F1F080914B058430C1F41C
:105710009091E9009F702091EC00822F817020FD14
:1057200080E8892B93E09093E9009091EB0090FF43
:1057300004C09091EE0097FD08C08F708093E9003F
:105740001092130308951092F1009091E80095FDD6
:10575000FACF9091E80090FFF0CF9091E8009E770B
:105760009093E800EACF42E061EC81E00E94A92E2C
:1057700042E261EC82E00E94A92E42E261EC83E009
:105780000E94A92E90914B0581E0943009F080E0B1
:10579000609147050C94CF2980914D05833009F421
:1057A00060C030F48130C9F1823009F49CC00895A2
:1057B0008A3009F488C08B3009F46EC0893009F052
:1057C0004FC080914C05813209F04AC0809150054C
:1057D00090915105029708F043C08091E800877FBF
:1057E0008093E8008091E80082FF36C09091F3003A
:1057F0008091F200029731F48091F100813011F034
:10580000863021F48091F10080931C038091E800A0
:105810008B778093E8000C94DD2E80914C05813AC3
:10582000F9F48091E800877F8093E800809150052B
:1058300090915105892B61F468E084E193E070E078
:105840000E94EC2D8091E8008B778093E80008950A
:1058500060E090E080E0F3CF80914B058111C2CFF2
:10586000089580914C05813AD9F780915005909127
:105870005105892BA9F78091E800877F8093E80084
:105880008091E80080FFFCCF80914C018093F10073
:105890008091E8008E77BDCF80914C05813201F771
:1058A0008091500590915105892BD1F68091E800A7
:1058B000877F8093E8000E94DD2E80914E058093C3
:1058C0004C010C94E10F80914C05813249F6809196
:1058D000E800877F8093E8000E94DD2E80914F05CD
:1058E00080931D03089580914C05813A09F0B8CF4B
:1058F0008091E800877F8093E8008091E80080FF36
:10590000FCCF80911D03C2CF9FB7F8941092130370
:105910009FBF90914B05943009F048C02091E90059
:105920002F703091EC00932F917030FD90E8922B06
:1059300023E02093E9002091EB0020FF34C0209168
:10594000EE0027FF30C020910E03222321F020918A
:10595000E80025FF28C010920E0326E03091E800F1
:1059600035FF14C08093F1008091E80085FD27C0C9
:105970008091E80080FFFCCF8091E8008E778093D3
:10598000E8009F709093E90080E0089530914B0506
:10599000343049F43091EB0035FD05C0215041F41D
:1059A00081E080930E039F709093E9008FEF08953C
:1059B000EFE9FFE03197F1F700C00000CFCF8FB7DC
:1059C000F89421E0209313038FBFDBCF84B7877F48
:1059D00084BF0FB6F894A895809160008861809389
:1059E0006000109260000FBE80E890E00FB6F8945F
:1059F00080936100909361000FBE0C94E4290E9493
:105A00002D2F0E948A2FE2EEF0E080818460808357
:105A100078940C94123280E491E00C94E628809102
:105A20004B058530C9F48AE09DE00E947E07809195
:105A30004B05853011F00C94282A0E94E7298091AB
:105A400049058823A1F30E94142A882381F30E9428
:105A5000872D0E94E10FEBCF089508950C94302D0F
:105A6000292F33272330310521F168F42130310506
:105A700009F443C02230310509F444C090E080E0CD
:105A800030E020E026C02132310551F122323105CB
:105A9000A9F76330710590F7FB01EE0FFF1FE4508B
:105AA000FE4F2081318167507E4FFB01808190E065
:105AB00010C099278130910581F0009729F0029755
:105AC000E9F6E2E2FDE002C0ECE4FDE0849190E062
:105AD0009F01FA01318320830895E0E3FDE0F6CFD2
